{
  "_format": "hh-sol-artifact-1",
  "contractName": "Marketplace",
  "sourceName": "contracts/Marketplace.sol",
  "abi": [
    {
      "anonymous": false,
      "inputs": [
        {
          "indexed": false,
          "internalType": "uint256",
          "name": "id",
          "type": "uint256"
        },
        {
          "indexed": false,
          "internalType": "string",
          "name": "name",
          "type": "string"
        },
        {
          "indexed": false,
          "internalType": "string",
          "name": "description",
          "type": "string"
        },
        {
          "indexed": false,
          "internalType": "uint256",
          "name": "price",
          "type": "uint256"
        },
        {
          "indexed": false,
          "internalType": "address payable",
          "name": "owner",
          "type": "address"
        },
        {
          "indexed": false,
          "internalType": "bool",
          "name": "purchased",
          "type": "bool"
        }
      ],
      "name": "ProductCreated",
      "type": "event"
    },
    {
      "anonymous": false,
      "inputs": [
        {
          "indexed": false,
          "internalType": "uint256",
          "name": "id",
          "type": "uint256"
        },
        {
          "indexed": false,
          "internalType": "string",
          "name": "name",
          "type": "string"
        },
        {
          "indexed": false,
          "internalType": "string",
          "name": "description",
          "type": "string"
        },
        {
          "indexed": false,
          "internalType": "uint256",
          "name": "price",
          "type": "uint256"
        },
        {
          "indexed": false,
          "internalType": "address payable",
          "name": "owner",
          "type": "address"
        },
        {
          "indexed": false,
          "internalType": "bool",
          "name": "purchased",
          "type": "bool"
        }
      ],
      "name": "ProductPurchased",
      "type": "event"
    },
    {
      "inputs": [
        {
          "internalType": "string",
          "name": "_name",
          "type": "string"
        },
        {
          "internalType": "string",
          "name": "_description",
          "type": "string"
        },
        {
          "internalType": "uint256",
          "name": "_price",
          "type": "uint256"
        }
      ],
      "name": "createProduct",
      "outputs": [],
      "stateMutability": "nonpayable",
      "type": "function"
    },
    {
      "inputs": [],
      "name": "productCount",
      "outputs": [
        {
          "internalType": "uint256",
          "name": "",
          "type": "uint256"
        }
      ],
      "stateMutability": "view",
      "type": "function"
    },
    {
      "inputs": [
        {
          "internalType": "uint256",
          "name": "",
          "type": "uint256"
        }
      ],
      "name": "products",
      "outputs": [
        {
          "internalType": "uint256",
          "name": "id",
          "type": "uint256"
        },
        {
          "internalType": "string",
          "name": "name",
          "type": "string"
        },
        {
          "internalType": "string",
          "name": "description",
          "type": "string"
        },
        {
          "internalType": "uint256",
          "name": "price",
          "type": "uint256"
        },
        {
          "internalType": "address payable",
          "name": "owner",
          "type": "address"
        },
        {
          "internalType": "bool",
          "name": "purchased",
          "type": "bool"
        }
      ],
      "stateMutability": "view",
      "type": "function"
    },
    {
      "inputs": [
        {
          "internalType": "uint256",
          "name": "_id",
          "type": "uint256"
        }
      ],
      "name": "purchaseProduct",
      "outputs": [],
      "stateMutability": "payable",
      "type": "function"
    }
  ],
  "bytecode": "0x608060405234801561001057600080fd5b506113d6806100206000396000f3fe60806040526004361061003f5760003560e01c806338e76a03146100445780637acc0b2014610060578063a1422209146100a2578063e0f6ef87146100cb575b600080fd5b61005e600480360381019061005991906109bf565b6100f6565b005b34801561006c57600080fd5b50610087600480360381019061008291906109bf565b6105c4565b60405161009996959493929190610ae7565b60405180910390f35b3480156100ae57600080fd5b506100c960048036038101906100c49190610c8b565b61073d565b005b3480156100d757600080fd5b506100e061096f565b6040516100ed9190610d16565b60405180910390f35b60008060008381526020019081526020016000206040518060c00160405290816000820154815260200160018201805461012f90610d60565b80601f016020809104026020016040519081016040528092919081815260200182805461015b90610d60565b80156101a85780601f1061017d576101008083540402835291602001916101a8565b820191906000526020600020905b81548152906001019060200180831161018b57829003601f168201915b505050505081526020016002820180546101c190610d60565b80601f01602080910402602001604051908101604052809291908181526020018280546101ed90610d60565b801561023a5780601f1061020f5761010080835404028352916020019161023a565b820191906000526020600020905b81548152906001019060200180831161021d57829003601f168201915b50505050508152602001600382015481526020016004820160009054906101000a900473ffffffffffffffffffffffffffffffffffffffff1673ffffffffffffffffffffffffffffffffffffffff1673ffffffffffffffffffffffffffffffffffffffff1681526020016004820160149054906101000a900460ff1615151515815250509050600081600001511180156102da5750600154816000015111155b610319576040517f08c379a000000000000000000000000000000000000000000000000000000000815260040161031090610ddd565b60405180910390fd5b600015158160a00151151514610364576040517f08c379a000000000000000000000000000000000000000000000000000000000815260040161035b90610e49565b60405180910390fd5b80606001513410156103ab576040517f08c379a00000000000000000000000000000000000000000000000000000000081526004016103a290610eb5565b60405180910390fd5b3373ffffffffffffffffffffffffffffffffffffffff16816080015173ffffffffffffffffffffffffffffffffffffffff160361041d576040517f08c379a000000000000000000000000000000000000000000000000000000000815260040161041490610f21565b60405180910390fd5b806080015173ffffffffffffffffffffffffffffffffffffffff166108fc349081150290604051600060405180830381858888f19350505050158015610467573d6000803e3d6000fd5b5033816080019073ffffffffffffffffffffffffffffffffffffffff16908173ffffffffffffffffffffffffffffffffffffffff168152505060018160a0019015159081151581525050806000808481526020019081526020016000206000820151816000015560208201518160010190816104e391906110ed565b5060408201518160020190816104f991906110ed565b506060820151816003015560808201518160040160006101000a81548173ffffffffffffffffffffffffffffffffffffffff021916908373ffffffffffffffffffffffffffffffffffffffff16021790555060a08201518160040160146101000a81548160ff0219169083151502179055509050507f5670f88139d28601bfe12c4f5db1a8220966f1b2c6f5c1b3e9731748c12bef6482826020015183604001518460600151856080015160016040516105b896959493929190610ae7565b60405180910390a15050565b60006020528060005260406000206000915090508060000154908060010180546105ed90610d60565b80601f016020809104026020016040519081016040528092919081815260200182805461061990610d60565b80156106665780601f1061063b57610100808354040283529160200191610666565b820191906000526020600020905b81548152906001019060200180831161064957829003601f168201915b50505050509080600201805461067b90610d60565b80601f01602080910402602001604051908101604052809291908181526020018280546106a790610d60565b80156106f45780601f106106c9576101008083540402835291602001916106f4565b820191906000526020600020905b8154815290600101906020018083116106d757829003601f168201915b5050505050908060030154908060040160009054906101000a900473ffffffffffffffffffffffffffffffffffffffff16908060040160149054906101000a900460ff16905086565b6000835111610781576040517f08c379a00000000000000000000000000000000000000000000000000000000081526004016107789061120b565b60405180910390fd5b60008251116107c5576040517f08c379a00000000000000000000000000000000000000000000000000000000081526004016107bc9061129d565b60405180910390fd5b60008111610808576040517f08c379a00000000000000000000000000000000000000000000000000000000081526004016107ff90611309565b60405180910390fd5b6001600081548092919061081b90611358565b91905055506040518060c0016040528060015481526020018481526020018381526020018281526020013373ffffffffffffffffffffffffffffffffffffffff16815260200160001515815250600080600154815260200190815260200160002060008201518160000155602082015181600101908161089b91906110ed565b5060408201518160020190816108b191906110ed565b506060820151816003015560808201518160040160006101000a81548173ffffffffffffffffffffffffffffffffffffffff021916908373ffffffffffffffffffffffffffffffffffffffff16021790555060a08201518160040160146101000a81548160ff0219169083151502179055509050507f63a99101901c72cb03a9e6f1cbaeda2eb16085ea58e490c2ecf7835160b16eb260015484848433600060405161096296959493929190610ae7565b60405180910390a1505050565b60015481565b6000604051905090565b600080fd5b600080fd5b6000819050919050565b61099c81610989565b81146109a757600080fd5b50565b6000813590506109b981610993565b92915050565b6000602082840312156109d5576109d461097f565b5b60006109e3848285016109aa565b91505092915050565b6109f581610989565b82525050565b600081519050919050565b600082825260208201905092915050565b60005b83811015610a35578082015181840152602081019050610a1a565b60008484015250505050565b6000601f19601f8301169050919050565b6000610a5d826109fb565b610a678185610a06565b9350610a77818560208601610a17565b610a8081610a41565b840191505092915050565b600073ffffffffffffffffffffffffffffffffffffffff82169050919050565b6000610ab682610a8b565b9050919050565b610ac681610aab565b82525050565b60008115159050919050565b610ae181610acc565b82525050565b600060c082019050610afc60008301896109ec565b8181036020830152610b0e8188610a52565b90508181036040830152610b228187610a52565b9050610b3160608301866109ec565b610b3e6080830185610abd565b610b4b60a0830184610ad8565b979650505050505050565b600080fd5b600080fd5b7f4e487b7100000000000000000000000000000000000000000000000000000000600052604160045260246000fd5b610b9882610a41565b810181811067ffffffffffffffff82111715610bb757610bb6610b60565b5b80604052505050565b6000610bca610975565b9050610bd68282610b8f565b919050565b600067ffffffffffffffff821115610bf657610bf5610b60565b5b610bff82610a41565b9050602081019050919050565b82818337600083830152505050565b6000610c2e610c2984610bdb565b610bc0565b905082815260208101848484011115610c4a57610c49610b5b565b5b610c55848285610c0c565b509392505050565b600082601f830112610c7257610c71610b56565b5b8135610c82848260208601610c1b565b91505092915050565b600080600060608486031215610ca457610ca361097f565b5b600084013567ffffffffffffffff811115610cc257610cc1610984565b5b610cce86828701610c5d565b935050602084013567ffffffffffffffff811115610cef57610cee610984565b5b610cfb86828701610c5d565b9250506040610d0c868287016109aa565b9150509250925092565b6000602082019050610d2b60008301846109ec565b92915050565b7f4e487b7100000000000000000000000000000000000000000000000000000000600052602260045260246000fd5b60006002820490506001821680610d7857607f821691505b602082108103610d8b57610d8a610d31565b5b50919050565b7f496e76616c69642070726f647563742069642e00000000000000000000000000600082015250565b6000610dc7601383610a06565b9150610dd282610d91565b602082019050919050565b60006020820190508181036000830152610df681610dba565b9050919050565b7f50726f6475637420616c72656164792073656c6c65642e000000000000000000600082015250565b6000610e33601783610a06565b9150610e3e82610dfd565b602082019050919050565b60006020820190508181036000830152610e6281610e26565b9050919050565b7f496e73756666696369656e742062616c616e63652e0000000000000000000000600082015250565b6000610e9f601583610a06565b9150610eaa82610e69565b602082019050919050565b60006020820190508181036000830152610ece81610e92565b9050919050565b7f596f752063616e742062757920796f7572206f776e2070726f647563742e0000600082015250565b6000610f0b601e83610a06565b9150610f1682610ed5565b602082019050919050565b60006020820190508181036000830152610f3a81610efe565b9050919050565b60008190508160005260206000209050919050565b60006020601f8301049050919050565b600082821b905092915050565b600060088302610fa37fffffffffffffffffffffffffffffffffffffffffffffffffffffffffffffffff82610f66565b610fad8683610f66565b95508019841693508086168417925050509392505050565b6000819050919050565b6000610fea610fe5610fe084610989565b610fc5565b610989565b9050919050565b6000819050919050565b61100483610fcf565b61101861101082610ff1565b848454610f73565b825550505050565b600090565b61102d611020565b611038818484610ffb565b505050565b5b8181101561105c57611051600082611025565b60018101905061103e565b5050565b601f8211156110a15761107281610f41565b61107b84610f56565b8101602085101561108a578190505b61109e61109685610f56565b83018261103d565b50505b505050565b600082821c905092915050565b60006110c4600019846008026110a6565b1980831691505092915050565b60006110dd83836110b3565b9150826002028217905092915050565b6110f6826109fb565b67ffffffffffffffff81111561110f5761110e610b60565b5b6111198254610d60565b611124828285611060565b600060209050601f8311600181146111575760008415611145578287015190505b61114f85826110d1565b8655506111b7565b601f19841661116586610f41565b60005b8281101561118d57848901518255600182019150602085019450602081019050611168565b868310156111aa57848901516111a6601f8916826110b3565b8355505b6001600288020188555050505b505050505050565b7f50726f64756374206e616d652063616e7420626520656d7074792e0000000000600082015250565b60006111f5601b83610a06565b9150611200826111bf565b602082019050919050565b60006020820190508181036000830152611224816111e8565b9050919050565b7f50726f64756374206465736372697074696f6e2063616e7420626520656d707460008201527f792e000000000000000000000000000000000000000000000000000000000000602082015250565b6000611287602283610a06565b91506112928261122b565b604082019050919050565b600060208201905081810360008301526112b68161127a565b9050919050565b7f50726963652063616e74206265207a65726f2e00000000000000000000000000600082015250565b60006112f3601383610a06565b91506112fe826112bd565b602082019050919050565b60006020820190508181036000830152611322816112e6565b9050919050565b7f4e487b7100000000000000000000000000000000000000000000000000000000600052601160045260246000fd5b600061136382610989565b91507fffffffffffffffffffffffffffffffffffffffffffffffffffffffffffffffff820361139557611394611329565b5b60018201905091905056fea26469706673582212205e3672587f9c424920d7d64b8e3041d759ef75877e3a4611a9e708439aeb3dcf64736f6c63430008130033",
  "linkReferences": {},
  "deployedLinkReferences": {}
}